{
  "_format": "hh-sol-artifact-1",
  "contractName": "StakingJoeEther",
  "sourceName": "contracts/StakingJoeEther.sol",
  "abi": [
    {
      "inputs": [],
      "stateMutability": "nonpayable",
      "type": "constructor"
    },
    {
      "anonymous": false,
      "inputs": [
        {
          "indexed": true,
          "internalType": "address",
          "name": "staker",
          "type": "address"
        },
        {
          "indexed": true,
          "internalType": "uint256",
          "name": "amount",
          "type": "uint256"
        }
      ],
      "name": "TokenStaked",
      "type": "event"
    },
    {
      "anonymous": false,
      "inputs": [
        {
          "indexed": true,
          "internalType": "address",
          "name": "staker",
          "type": "address"
        },
        {
          "indexed": true,
          "internalType": "uint256",
          "name": "totalReturn",
          "type": "uint256"
        }
      ],
      "name": "TokenUnstaked",
      "type": "event"
    },
    {
      "inputs": [
        {
          "internalType": "uint256",
          "name": "duration",
          "type": "uint256"
        }
      ],
      "name": "calculateReward",
      "outputs": [
        {
          "internalType": "uint256",
          "name": "",
          "type": "uint256"
        }
      ],
      "stateMutability": "pure",
      "type": "function"
    },
    {
      "inputs": [],
      "name": "checkBalance",
      "outputs": [
        {
          "internalType": "uint256",
          "name": "",
          "type": "uint256"
        }
      ],
      "stateMutability": "view",
      "type": "function"
    },
    {
      "inputs": [],
      "name": "checkContractBalance",
      "outputs": [
        {
          "internalType": "uint256",
          "name": "",
          "type": "uint256"
        }
      ],
      "stateMutability": "view",
      "type": "function"
    },
    {
      "inputs": [
        {
          "internalType": "address",
          "name": "",
          "type": "address"
        }
      ],
      "name": "hasStaked",
      "outputs": [
        {
          "internalType": "bool",
          "name": "",
          "type": "bool"
        }
      ],
      "stateMutability": "view",
      "type": "function"
    },
    {
      "inputs": [],
      "name": "owner",
      "outputs": [
        {
          "internalType": "address",
          "name": "",
          "type": "address"
        }
      ],
      "stateMutability": "view",
      "type": "function"
    },
    {
      "inputs": [],
      "name": "stakeJoe",
      "outputs": [
        {
          "internalType": "address",
          "name": "",
          "type": "address"
        },
        {
          "internalType": "uint256",
          "name": "",
          "type": "uint256"
        },
        {
          "internalType": "bool",
          "name": "",
          "type": "bool"
        }
      ],
      "stateMutability": "payable",
      "type": "function"
    },
    {
      "inputs": [
        {
          "internalType": "address",
          "name": "",
          "type": "address"
        }
      ],
      "name": "stakers",
      "outputs": [
        {
          "internalType": "uint256",
          "name": "stakingStartTime",
          "type": "uint256"
        },
        {
          "internalType": "uint256",
          "name": "stakedAmount",
          "type": "uint256"
        },
        {
          "internalType": "uint256",
          "name": "reward",
          "type": "uint256"
        }
      ],
      "stateMutability": "view",
      "type": "function"
    },
    {
      "inputs": [],
      "name": "stakingClosed",
      "outputs": [
        {
          "internalType": "bool",
          "name": "",
          "type": "bool"
        }
      ],
      "stateMutability": "view",
      "type": "function"
    },
    {
      "inputs": [],
      "name": "toggleStaking",
      "outputs": [
        {
          "internalType": "bool",
          "name": "",
          "type": "bool"
        },
        {
          "internalType": "uint256",
          "name": "",
          "type": "uint256"
        }
      ],
      "stateMutability": "nonpayable",
      "type": "function"
    },
    {
      "inputs": [],
      "name": "unStakeJoe",
      "outputs": [],
      "stateMutability": "nonpayable",
      "type": "function"
    },
    {
      "stateMutability": "payable",
      "type": "receive"
    }
  ],
  "bytecode": "0x608060405234801561001057600080fd5b50336000806101000a81548173ffffffffffffffffffffffffffffffffffffffff021916908373ffffffffffffffffffffffffffffffffffffffff160217905550610f75806100606000396000f3fe6080604052600436106100955760003560e01c80639168ae72116100595780639168ae721461015a578063a92ae61f14610199578063c71daccb146101c4578063c93c8f34146101ef578063d2d7231f1461022c5761009c565b806320a55024146100a157806334118e3c146100c15780633b8105b3146100d857806350312c9e146101045780638da5cb5b1461012f5761009c565b3661009c57005b600080fd5b6100a9610269565b6040516100b893929190610988565b60405180910390f35b3480156100cd57600080fd5b506100d661044f565b005b3480156100e457600080fd5b506100ed610736565b6040516100fb9291906109bf565b60405180910390f35b34801561011057600080fd5b5061011961080a565b60405161012691906109e8565b60405180910390f35b34801561013b57600080fd5b50610144610812565b6040516101519190610a03565b60405180910390f35b34801561016657600080fd5b50610181600480360381019061017c9190610a4f565b610836565b60405161019093929190610a7c565b60405180910390f35b3480156101a557600080fd5b506101ae610860565b6040516101bb9190610ab3565b60405180910390f35b3480156101d057600080fd5b506101d9610873565b6040516101e691906109e8565b60405180910390f35b3480156101fb57600080fd5b5061021660048036038101906102119190610a4f565b6108bd565b6040516102239190610ab3565b60405180910390f35b34801561023857600080fd5b50610253600480360381019061024e9190610afa565b6108dd565b60405161026091906109e8565b60405180910390f35b60008060008060149054906101000a900460ff16156102bd576040517f08c379a00000000000000000000000000000000000000000000000000000000081526004016102b490610b84565b60405180910390fd5b60003411610300576040517f08c379a00000000000000000000000000000000000000000000000000000000081526004016102f790610bf0565b60405180910390fd5b42600160003373ffffffffffffffffffffffffffffffffffffffff1673ffffffffffffffffffffffffffffffffffffffff1681526020019081526020016000206000018190555034600160003373ffffffffffffffffffffffffffffffffffffffff1673ffffffffffffffffffffffffffffffffffffffff16815260200190815260200160002060010160008282546103999190610c3f565b925050819055506000600160003373ffffffffffffffffffffffffffffffffffffffff1673ffffffffffffffffffffffffffffffffffffffff168152602001908152602001600020600201819055506001600260003373ffffffffffffffffffffffffffffffffffffffff1673ffffffffffffffffffffffffffffffffffffffff16815260200190815260200160002060006101000a81548160ff02191690831515021790555033426001925092509250909192565b600260003373ffffffffffffffffffffffffffffffffffffffff1673ffffffffffffffffffffffffffffffffffffffff16815260200190815260200160002060009054906101000a900460ff166104db576040517f08c379a00000000000000000000000000000000000000000000000000000000081526004016104d290610cbf565b60405180910390fd5b6000600160003373ffffffffffffffffffffffffffffffffffffffff1673ffffffffffffffffffffffffffffffffffffffff1681526020019081526020016000206040518060600160405290816000820154815260200160018201548152602001600282015481525050905062015180816000015161055a9190610c3f565b42101561059c576040517f08c379a000000000000000000000000000000000000000000000000000000000815260040161059390610d2b565b60405180910390fd5b60008160200151905060006105bf8360000151426105ba9190610d4b565b6108dd565b9050600081836105cf9190610c3f565b9050600084602001818152505060008460400181815250506000600260003373ffffffffffffffffffffffffffffffffffffffff1673ffffffffffffffffffffffffffffffffffffffff16815260200190815260200160002060006101000a81548160ff02191690831515021790555060003373ffffffffffffffffffffffffffffffffffffffff168260405161066590610db0565b60006040518083038185875af1925050503d80600081146106a2576040519150601f19603f3d011682016040523d82523d6000602084013e6106a7565b606091505b50509050806106eb576040517f08c379a00000000000000000000000000000000000000000000000000000000081526004016106e290610e11565b60405180910390fd5b813373ffffffffffffffffffffffffffffffffffffffff167ff0dbb2abe50e936f0d3720a39c0debe7706007b2c50286a913f24298e9be36ba60405160405180910390a35050505050565b6000803373ffffffffffffffffffffffffffffffffffffffff1660008054906101000a900473ffffffffffffffffffffffffffffffffffffffff1673ffffffffffffffffffffffffffffffffffffffff16146107c7576040517f08c379a00000000000000000000000000000000000000000000000000000000081526004016107be90610e7d565b60405180910390fd5b600060149054906101000a900460ff1615600060146101000a81548160ff021916908315150217905550600060149054906101000a900460ff1642915091509091565b600047905090565b60008054906101000a900473ffffffffffffffffffffffffffffffffffffffff1681565b60016020528060005260406000206000915090508060000154908060010154908060020154905083565b600060149054906101000a900460ff1681565b6000600160003373ffffffffffffffffffffffffffffffffffffffff1673ffffffffffffffffffffffffffffffffffffffff16815260200190815260200160002060010154905090565b60026020528060005260406000206000915054906101000a900460ff1681565b60008067016345785d8a00009050600062015180846108fc9190610ecc565b826109079190610efd565b90508092505050919050565b600073ffffffffffffffffffffffffffffffffffffffff82169050919050565b600061093e82610913565b9050919050565b61094e81610933565b82525050565b6000819050919050565b61096781610954565b82525050565b60008115159050919050565b6109828161096d565b82525050565b600060608201905061099d6000830186610945565b6109aa602083018561095e565b6109b76040830184610979565b949350505050565b60006040820190506109d46000830185610979565b6109e1602083018461095e565b9392505050565b60006020820190506109fd600083018461095e565b92915050565b6000602082019050610a186000830184610945565b92915050565b600080fd5b610a2c81610933565b8114610a3757600080fd5b50565b600081359050610a4981610a23565b92915050565b600060208284031215610a6557610a64610a1e565b5b6000610a7384828501610a3a565b91505092915050565b6000606082019050610a91600083018661095e565b610a9e602083018561095e565b610aab604083018461095e565b949350505050565b6000602082019050610ac86000830184610979565b92915050565b610ad781610954565b8114610ae257600080fd5b50565b600081359050610af481610ace565b92915050565b600060208284031215610b1057610b0f610a1e565b5b6000610b1e84828501610ae5565b91505092915050565b600082825260208201905092915050565b7f546865207374616b696e6720706572696f6420697320636c6f73656400000000600082015250565b6000610b6e601c83610b27565b9150610b7982610b38565b602082019050919050565b60006020820190508181036000830152610b9d81610b61565b9050919050565b7f596f752063616e2774207374616b65207a65726f20616d6f756e740000000000600082015250565b6000610bda601b83610b27565b9150610be582610ba4565b602082019050919050565b60006020820190508181036000830152610c0981610bcd565b9050919050565b7f4e487b7100000000000000000000000000000000000000000000000000000000600052601160045260246000fd5b6000610c4a82610954565b9150610c5583610954565b9250828201905080821115610c6d57610c6c610c10565b5b92915050565b7f596f7520646f6e2774206861766520616e20616374697665207374616b650000600082015250565b6000610ca9601e83610b27565b9150610cb482610c73565b602082019050919050565b60006020820190508181036000830152610cd881610c9c565b9050919050565b7f546865207374616b696e6720706572696f6420686173206e6f7420656e646564600082015250565b6000610d15602083610b27565b9150610d2082610cdf565b602082019050919050565b60006020820190508181036000830152610d4481610d08565b9050919050565b6000610d5682610954565b9150610d6183610954565b9250828203905081811115610d7957610d78610c10565b5b92915050565b600081905092915050565b50565b6000610d9a600083610d7f565b9150610da582610d8a565b600082019050919050565b6000610dbb82610d8d565b9150819050919050565b7f5472616e7366657220686173206661696c656400000000000000000000000000600082015250565b6000610dfb601383610b27565b9150610e0682610dc5565b602082019050919050565b60006020820190508181036000830152610e2a81610dee565b9050919050565b7f596f7520617265206e6f7420746865206f776e65720000000000000000000000600082015250565b6000610e67601583610b27565b9150610e7282610e31565b602082019050919050565b60006020820190508181036000830152610e9681610e5a565b9050919050565b7f4e487b7100000000000000000000000000000000000000000000000000000000600052601260045260246000fd5b6000610ed782610954565b9150610ee283610954565b925082610ef257610ef1610e9d565b5b828204905092915050565b6000610f0882610954565b9150610f1383610954565b9250828202610f2181610954565b91508282048414831517610f3857610f37610c10565b5b509291505056fea26469706673582212202ee7044d6fe098efbeddd387c718f6773e18dd514577b7fb797d168f3543503064736f6c63430008140033",
  "linkReferences": {},
  "deployedLinkReferences": {}
}